S00C00006C6162322E73726563B7
S11300000C942A000C9434000C9434000C943400A6
S11300100C9434000C9434000C9434000C9434008C
S11300200C9434000C9434000C9434000C9434007C
S11300300C9434000C9434000C9434000C9434006C
S11300400C9434000C9434000C9434000C9434005C
S11300500C94340011241FBECFE5D8E0DEBFCDBF21
S11300600E9436000C9461000C9400008FEF8ABB50
S113007081BB6EEF54EA4DEF80EC3BEF27EF99EF35
S113008062BB5BBBE3EFF1E03197F1F700C0000026
S113009042BB8BBBE3EFF1E03197F1F700C0000006
S11300A032BB8BBBE3EFF1E03197F1F700C0000006
S11300B022BB9BBBE3EFF1E03197F1F700C00000F6
S10900C0DFCFF894FFCF2E
S9030000FC
