S00C00006C6162322E73726563B7
S11300000C942A000C943F000C943F000C943F0085
S11300100C943F000C943F000C943F000C943F0060
S11300200C943F000C943F000C943F000C943F0050
S11300300C943F000C943F000C943F000C943F0040
S11300400C943F000C943F000C943F000C943F0030
S11300500C943F0011241FBECFE5D8E0DEBFCDBF16
S113006010E0A0E6B0E0E8E6F2E002C005900D92F0
S1130070AA36B107D9F70E9441000C9432010C94BE
S11300800000CF93DF93CDB7DEB72A970FB6F8946D
S1130090DEBF0FBECDBF8FEF8ABB8FE081BB8AE08E
S11300A0E0E6F0E0DE01119601900D928A95E1F709
S11300B00F2EF7EF9F2EF02D0F2EFAE0CF2ED12C1E
S11300C0F02D0F2EF4E6AF2EB12CF02D0F2EFBEFFA
S11300D08F2EF02D0F2EFDEF7F2EF02D7E0123E0CD
S11300E0E20EF11C02E010E0C8010B97893591057E
S11300F050F5C801B6010E940A012CE730E0A1E0E6
S1130100B0E0AC0FBD1FA80FB11DE1E0F0E0EC0FB3
S1130110FD1FE60FF11D92BA8C9180958BBB83EF86
S113012091E00197F1F700C0000082BA80818095C8
S11301308BBB83EF91E00197F1F700C000002150E1
S1130140310949F75DC0043611050CF44BC0C801F0
S1130150B6010E940A01482FCB01B6010E940A0190
S1130160E82FC801B5010E940A01CB01B6010E9423
S11301700A0123E530E061E070E06C0F7D1F640F3D
S1130180711DAB01A1E0B0E0AC0FBD1FAE0FB11DFE
S113019061E070E06C0F7D1F680F711D92BAFA0167
S11301A0808180958BBB83EF91E00197F1F700C0CC
S11301B0000082BA8C9180958BBBE3EFF1E031971C
S11301C0F1F700C0000072BAFB01808180958BBBFF
S11301D083EF91E00197F1F700C00000215031094D
S11301E0E9F60EC092BAF701808180958BBBFFE9D6
S11301F026E861E0F15020406040E1F700C00000D3
S1130200095F1F4F77E0E70EF11C0539110509F06E
S11302106BCF64CF97FB072E16F4009407D077FDBD
S113022009D00E941E0107FC05D03EF490958195EB
S11302309F4F0895709561957F4F0895AA1BBB1B2E
S113024051E107C0AA1FBB1FA617B70710F0A61BD2
S1130250B70B881F991F5A95A9F780959095BC01F3
S10B0260CD010895F894FFCFCD
S10D02683F065B4F666D7D077F6F54
S9030000FC
